:100000000C948000000000000000000000000000D0
:1000100000000000000000000000000000000000E0
:1000200000000000000000000000000000000000D0
:1000300000000000000000000000000000000000C0
:10004000000000000C94C3000C94C5000C94C70081
:100050000C94B90000000000000000000000000047
:100060000000000000000000000000000000000090
:100070000000000000000000000000000000000080
:100080000000000000000000000000000000000070
:100090000000000000000000000000000000000060
:1000A0000000000000000000000000000000000050
:1000B0000000000000000000000000000000000040
:1000C0000000000000000000000000000000000030
:1000D0000000000000000000000000000000000020
:1000E0000000000000000000000000000000000010
:1000F0000000000000000000000000000000000000
:10010000F89400E10EBF1FEF1DBF6F9A809A819A8D
:1001100000E00093800002E00093810000E0009383
:1001200082000FE000936F00B09AB19AB29AB39A2E
:1001300000E00093D8000093DE0010E020EF209351
:100140008500109384001FEF28EF209389001093FF
:10015000880011E020EF20938B0010938A001FEF9E
:1001600028EF20938D0010938C00789400000C945D
:10017000B600779A889A899A10E020EF209385003C
:1001800010938400189577981895889818958998F1
:020190001895C0
:00000001FF
